:020000040800F2
:1000000000000220312000088B2000088D2000080D
:100010008F200008912000089320000800000000B5
:100020000000000000000000000000009520000813
:100030009720000800000000992000089B2000087D
:1000400089200008892000088920000889200008EC
:1000500089200008892000088920000889200008DC
:1000600089200008892000088920000889200008CC
:1000700089200008892000088920000889200008BC
:1000800089200008892000088920000889200008AC
:10009000892000088920000889200008892000089C
:1000A000892000088920000889200008711B0008A9
:1000B000892000081D1B00088920000889200008ED
:1000C000892000088920000889200008892000086C
:1000D000892000088920000889200008892000085C
:1000E000892000088920000889200008892000084C
:1000F000892000088920000889200008892000083C
:10010000892000088920000889200008892000082B
:10011000892000088920000861220008AD2300081A
:10012000892000088920000889200008892000080B
:1001300089200008892000088920000889200008FB
:1001400089200008892000088920000889200008EB
:1001500089200008892000088920000895250008CA
:1001600089200008892000088920000889200008CB
:1001700089200008892000088920000889200008BB
:08018000892000088920000815
:1001880010B5054C237833B9044B13B10448AFF3C9
:1001980000800123237010BD2C0400200000000003
:1001A8006829000808B5034B1BB103490348AFF39E
:1001B800008008BD00000000300400206829000805
:1001C80081F0004102E000BF83F0004330B54FEA00
:1001D80041044FEA430594EA050F08BF90EA020F6D
:1001E8001FBF54EA000C55EA020C7FEA645C7FEA00
:1001F800655C00F0E2804FEA5454D4EB5555B8BF23
:100208006D420CDD2C4480EA020281EA030382EA93
:10021800000083EA010180EA020281EA0303362D25
:1002280088BF30BD11F0004F4FEA01314FF4801CF8
:100238004CEA113102D0404261EB410113F0004F0A
:100248004FEA03334CEA133302D0524263EB4303C1
:1002580094EA050F00F0A780A4F10104D5F1200E5F
:100268000DDB02FA0EFC22FA05F2801841F10001BA
:1002780003FA0EF2801843FA05F359410EE0A5F18E
:1002880020050EF1200E012A03FA0EFC28BF4CF0BF
:10029800020C43FA05F3C01851EBE37101F0004575
:1002A80007D54FF0000EDCF1000C7EEB00006EEB82
:1002B8000101B1F5801F1BD3B1F5001F0CD349080C
:1002C8005FEA30004FEA3C0C04F101044FEA445263
:1002D80012F5800F80F09A80BCF1004F08BF5FEAEA
:1002E800500C50F1000041EB045141EA050130BDCA
:1002F8005FEA4C0C404141EB010111F4801FA4F16D
:100308000104E9D191F0000F04BF01460020B1FAC1
:1003180081F308BF2033A3F10B03B3F120020CDAF9
:100328000C3208DD02F1140CC2F10C0201FA0CF0D7
:1003380021FA02F10CE002F11402D8BFC2F1200C3C
:1003480001FA02F120FA0CFCDCBF41EA0C019040F2
:10035800E41AA2BF01EB0451294330BD6FEA04043B
:100368001F3C1CDA0C340EDC04F11404C4F1200226
:1003780020FA04F001FA02F340EA030021FA04F338
:1003880045EA030130BDC4F10C04C4F1200220FA8F
:1003980002F001FA04F340EA0300294630BD21FACD
:1003A80004F0294630BD94F0000F83F4801306BF93
:1003B80081F480110134013D4EE77FEA645C18BF87
:1003C8007FEA655C29D094EA050F08BF90EA020F1E
:1003D80005D054EA000C04BF1946104630BD91EA16
:1003E800030F1EBF0021002030BD5FEA545C05D119
:1003F8004000494128BF41F0004130BD14F5800458
:100408003CBF01F5801130BD01F0004545F0FE41CB
:1004180041F470014FF0000030BD7FEA645C1ABF00
:10042800194610467FEA655C1CBF0B46024650EA37
:10043800013406BF52EA033591EA030F41F4002163
:1004480030BD00BF90F0000F04BF0021704730B5E9
:100458004FF4806404F132044FF000054FF00001BE
:1004680050E700BF90F0000F04BF0021704730B57F
:100478004FF4806404F1320410F0004548BF404254
:100488004FF000013EE700BF42004FEAE2014FEAA9
:1004980031014FEA02701FBF12F07F4393F07F4F84
:1004A80081F06051704732F07F4208BF704793F087
:1004B8007F4F04BF41F40021704730B54FF460749A
:1004C80001F0004521F000411CE700BF50EA01029D
:1004D80008BF704730B54FF000050AE050EA010246
:1004E80008BF704730B511F0004502D5404261EBB6
:1004F80041014FF4806404F132045FEA915C3FF4F7
:10050800D8AE4FF003025FEADC0C18BF03325FEA93
:10051800DC0C18BF033202EBDC02C2F1200300FA44
:1005280003FC20FA02F001FA03FE40EA0E0021FA69
:1005380002F11444BDE600BF70B54FF0FF0C4CF457
:10054800E06C1CEA11541DBF1CEA135594EA0C0F09
:1005580095EA0C0F00F0DEF82C4481EA030621EA44
:100568004C5123EA4C5350EA013518BF52EA03357F
:1005780041F4801143F4801338D0A0FB02CE4FF031
:100588000005E1FB02E506F00042E0FB03E54FF061
:100598000006E1FB03569CF0000F18BF4EF0010E59
:1005A800A4F1FF04B6F5007F64F5407404D25FEA55
:1005B8004E0E6D4146EB060642EAC62141EA555108
:1005C8004FEAC52040EA5E504FEACE2EB4F1FD0C4A
:1005D80088BFBCF5E06F1ED8BEF1004F08BF5FEAC8
:1005E800500E50F1000041EB045170BD06F000467A
:1005F80046EA010140EA020081EA0301B4EB5C0427
:10060800C2BFD4EB0C0541EA045170BD41F480111E
:100618004FF0000E013C00F3AB8014F1360FDEBF43
:10062800002001F0004170BDC4F10004203C35DA1F
:100638000C341BDC04F11404C4F1200500FA05F3A2
:1006480020FA04F001FA05F240EA020001F0004243
:1006580021F0004110EBD37021FA04F642EB0601B9
:100668005EEA430E08BF20EAD37070BDC4F10C04E3
:10067800C4F1200500FA04F320FA05F001FA04F2A7
:1006880040EA020001F0004110EBD37041F1000193
:100698005EEA430E08BF20EAD37070BDC4F120059E
:1006A80000FA05F24EEA020E20FA04F301FA05F206
:1006B80043EA020321FA04F001F0004121FA04F2AE
:1006C80020EA020000EBD3705EEA430E08BF20EA7E
:1006D800D37070BD94F0000F0FD101F000464000B8
:1006E80041EB010111F4801F08BF013CF7D041EA3A
:1006F800060195F0000F18BF704703F0004652003E
:1007080043EB030313F4801F08BF013DF7D043EA0E
:100718000603704794EA0C0F0CEA135518BF95EAC4
:100728000C0F0CD050EA410618BF52EA4306D1D14B
:1007380081EA030101F000414FF0000070BD50EA6A
:10074800410606BF1046194652EA430619D094EAF4
:100758000C0F02D150EA013613D195EA0C0F05D1DE
:1007680052EA03361CBF104619460AD181EA030132
:1007780001F0004141F0FE4141F470014FF00000EA
:1007880070BD41F0FE4141F4780170BD70B54FF085
:10079800FF0C4CF4E06C1CEA11541DBF1CEA135505
:1007A80094EA0C0F95EA0C0F00F0A7F8A4EB0504E7
:1007B80081EA030E52EA03354FEA013100F08880DE
:1007C8004FEA03334FF0805545EA131343EA1263A7
:1007D8004FEA022245EA111545EA10654FEA00265C
:1007E8000EF000419D4208BF964244F1FD0404F515
:1007F800407402D25B084FEA3202B61A65EB030571
:100808005B084FEA32024FF480104FF4002CB6EB2D
:10081800020E75EB030E22BFB61A754640EA0C00AD
:100828005B084FEA3202B6EB020E75EB030E22BFED
:10083800B61A754640EA5C005B084FEA3202B6EB2E
:10084800020E75EB030E22BFB61A754640EA9C00ED
:100858005B084FEA3202B6EB020E75EB030E22BFBD
:10086800B61A754640EADC0055EA060E18D04FEA7B
:10087800051545EA16754FEA06164FEAC30343EA1B
:1008880052734FEAC2025FEA1C1CC0D111F4801FE8
:100898000BD141EA00014FF000004FF0004CB6E7E1
:1008A80011F4801F04BF01430020B4F1FD0C88BF80
:1008B800BCF5E06F3FF6AFAEB5EB030C04BFB6EB8B
:1008C800020C5FEA500C50F1000041EB045170BD7E
:1008D8000EF0004E4EEA113114EB5C04C2BFD4EBAB
:1008E8000C0541EA045170BD41F480114FF0000E2F
:1008F800013C90E645EA060E8DE60CEA135594EAAB
:100908000C0F08BF95EA0C0F3FF43BAF94EA0C0FAD
:100918000AD150EA01347FF434AF95EA0C0F7FF422
:1009280025AF104619462CE795EA0C0F06D152EA76
:1009380003353FF4FDAE1046194622E750EA41065A
:1009480018BF52EA43067FF4C5AE50EA41047FF46B
:100958000DAF52EA43057FF4EBAE12E74FF0FF3CD0
:1009680006E000BF4FF0010C02E000BF4FF0010CA1
:100978004DF804CD4FEA410C7FEA6C5C4FEA430C1A
:1009880018BF7FEA6C5C1BD001B050EA410C0CBF69
:1009980052EA430C91EA030F02BF90EA020F0020CB
:1009A800704710F1000F91EA030F58BF994208BF32
:1009B80090422CBFD8176FEAE37040F001007047EF
:1009C8004FEA410C7FEA6C5C02D150EA013C07D146
:1009D8004FEA430C7FEA6C5CD6D152EA033CD3D091
:1009E8005DF8040B704700BF8446104662468C468B
:1009F8001946634600E000BF01B5FFF7B7FF0028BE
:100A080048BF10F1000F01BD4DF808EDFFF7F4FFE6
:100A18000CBF012000205DF808FB00BF4DF808ED71
:100A2800FFF7EAFF34BF012000205DF808FB00BF94
:100A38004DF808EDFFF7E0FF94BF012000205DF8B6
:100A480008FB00BF4DF808EDFFF7CEFF94BF01206B
:100A580000205DF808FB00BF4DF808EDFFF7C4FF64
:100A680034BF012000205DF808FB00BF4FEA4102B7
:100A7800B2F1E04324BFB3F5001CDCF1FE5C0DD9F4
:100A880001F0004C4FEAC0024CEA5070B2F1004F3E
:100A980040EB830008BF20F00100704711F0804F41
:100AA80021D113F13872BCBF01F00040704741F406
:100AB80080114FEA5252C2F11802C2F1200C10FA0A
:100AC8000CF320FA02F018BF40F001004FEAC123EE
:100AD8004FEAD32303FA0CFC40EA0C0023FA02F392
:100AE8004FEA4303CCE77FEA625307D150EA013368
:100AF8001EBF4FF0FE4040F44000704701F0004038
:100B080040F0FE4040F40000704700BF80F0004015
:100B180002E000BF81F0004142001FBF5FEA4103CD
:100B280092EA030F7FEA226C7FEA236C6AD04FEACD
:100B38001262D2EB1363C1BFD21841404840414012
:100B4800B8BF5B42192B88BF704710F0004F40F4C4
:100B5800000020F07F4018BF404211F0004F41F4E0
:100B6800000121F07F4118BF494292EA030F3FD0AC
:100B7800A2F1010241FA03FC10EB0C00C3F12003BF
:100B880001FA03F100F0004302D5494260EB40004E
:100B9800B0F5000F13D3B0F1807F06D340084FEAB9
:100BA800310102F10102FE2A51D2B1F1004F40EBAE
:100BB800C25008BF20F0010040EA03007047490016
:100BC80040EB000010F4000FA2F10102EDD1B0FAE1
:100BD80080FCACF1080CB2EB0C0200FA0CF0AABFD6
:100BE80000EBC25052421843BCBFD0401843704774
:100BF80092F0000F81F4000106BF80F4000001327A
:100C0800013BB5E74FEA41037FEA226C18BF7FEA50
:100C1800236C21D092EA030F04D092F0000F08BF92
:100C28000846704790EA010F1CBF0020704712F079
:100C38007F4F04D1400028BF40F00040704712F1B8
:100C480000723CBF00F50000704700F0004343F01D
:100C5800FE4040F4000070477FEA226216BF084653
:100C68007FEA23630146420206BF5FEA412390EA16
:100C7800010F40F4800070474FF0000304E000BF0C
:100C880010F0004348BF40425FEA000C08BF7047BD
:100C980043F0964301464FF000001CE050EA010281
:100CA80008BF70474FF000030AE000BF50EA010296
:100CB80008BF704711F0004302D5404261EB410183
:100CC8005FEA010C02BF84460146002043F0B643A8
:100CD80008BFA3F18053A3F50003BCFA8CF2083ACD
:100CE800A3EBC25310DB01FA02FC634400FA02FCD6
:100CF800C2F12002BCF1004F20FA02F243EB0200DD
:100D080008BF20F00100704702F1200201FA02FC3E
:100D1800C2F1200250EA4C0021FA02F243EB020031
:100D280008BF20EADC7070474FF0FF0C1CEAD05275
:100D38001EBF1CEAD15392EA0C0F93EA0C0F6FD036
:100D48001A4480EA010C400218BF5FEA41211ED014
:100D58004FF0006343EA501043EA5111A0FB013100
:100D68000CF00040B1F5000F3EBF490041EAD371D5
:100D78005B0040EA010062F17F02FD2A1DD8B3F151
:100D8800004F40EBC25008BF20F00100704790F0C0
:100D9800000F0CF0004C08BF49024CEA502040EA12
:100DA80051207F3AC2BFD2F1FF0340EAC2507047D8
:100DB80040F400004FF00003013A5DDC12F1190F16
:100DC800DCBF00F000407047C2F10002410021FA88
:100DD80002F1C2F1200200FA02FC5FEA310040F1A0
:100DE800000053EA4C0308BF20EADC70704792F019
:100DF800000F00F0004C02BF400010F4000F013A51
:100E0800F9D040EA0C0093F0000F01F0004C02BF4B
:100E1800490011F4000F013BF9D041EA0C018FE7BA
:100E28000CEAD15392EA0C0F18BF93EA0C0F0AD0C0
:100E380030F0004C18BF31F0004CD8D180EA0100E6
:100E480000F00040704790F0000F17BF90F0004F7F
:100E5800084691F0000F91F0004F14D092EA0C0F61
:100E680001D142020FD193EA0C0F03D14B0218BFF4
:100E7800084608D180EA010000F0004040F0FE403A
:100E880040F40000704740F0FE4040F440007047D6
:100E98004FF0FF0C1CEAD0521EBF1CEAD15392EA55
:100EA8000C0F93EA0C0F69D0A2EB030280EA010C45
:100EB80049024FEA402037D04FF0805343EA1111DE
:100EC80043EA10130CF000408B4238BF5B0042F13C
:100ED8007D024FF4000C8B4224BF5B1A40EA0C00E1
:100EE800B3EB510F24BFA3EB510340EA5C00B3EB13
:100EF800910F24BFA3EB910340EA9C00B3EBD10F01
:100F080024BFA3EBD10340EADC001B0118BF5FEA52
:100F18001C1CE0D1FD2A3FF650AF8B4240EBC2507B
:100F280008BF20F0010070470CF0004C4CEA50203C
:100F38007F32C2BFD2F1FF0340EAC250704740F48B
:100F480000004FF00003013A37E792F0000F00F07D
:100F5800004C02BF400010F4000F013AF9D040EAFB
:100F68000C0093F0000F01F0004C02BF490011F48F
:100F7800000F013BF9D041EA0C0195E70CEAD15387
:100F880092EA0C0F08D142027FF47DAF93EA0C0F6E
:100F98007FF470AF084676E793EA0C0F04D14B0252
:100FA8003FF44CAF08466EE730F0004C18BF31F004
:100FB800004CCAD130F000427FF45CAF31F00043FE
:100FC8007FF43CAF5FE700BF4FF0FF3C06E000BF97
:100FD8004FF0010C02E000BF4FF0010C4DF804CDBA
:100FE8004FEA40024FEA41037FEA226C18BF7FEACA
:100FF800236C11D001B052EA530C18BF90EA010FCC
:1010080058BFB2EB030088BFC81738BF6FEAE1705A
:1010180018BF40F0010070477FEA226C02D15FEAF6
:10102800402C05D17FEA236CE4D15FEA412CE1D062
:101038005DF8040B704700BF844608466146FFE729
:101048000FB5FFF7C9FF002848BF10F1000F0FBD0B
:101058004DF808EDFFF7F4FF0CBF012000205DF804
:1010680008FB00BF4DF808EDFFF7EAFF34BF012089
:1010780000205DF808FB00BF4DF808EDFFF7E0FF22
:1010880094BF012000205DF808FB00BF4DF808ED73
:10109800FFF7D2FF94BF012000205DF808FB00BFD6
:1010A8004DF808EDFFF7C8FF34BF012000205DF8B8
:1010B80008FB00BF42000ED2B2F1FE4F0BD34FF037
:1010C8009E03B3EB126209D44FEA002343F00043B6
:1010D80023FA02F070474FF00000704712F1610FD9
:1010E80001D1420202D14FF0FF3070474FF00000AB
:1010F800704700BF0C4B5A6C42F480625A640B4A2A
:10110800916841F001019160116941F060511161EC
:101118001A6B42F020021A63054A136843F47F43AE
:1011280043F0C003136070470038024000220140BA
:1011380000140240074B5A6B22F01F0210435863F9
:101148009A6842F080429A601A689207FCD5D86C77
:1011580080B270470022014008B5A0F50060FFF793
:1011680081F905A3D3E90023FFF7E6F9FFF77EFC31
:1011780008BD00BFAFF30080BA490C022B87963F29
:101188002DE9F04701F058F85C4E0746002400208E
:1011980001F08EFA002800F0AE80012C00F2AB803E
:1011A800574C07E001F084FAB8B101F001FA08B928
:1011B8000123237020780028F4D0002001F078FA69
:1011C80058B100214F4D084601F09CFA2B7818437E
:1011D80010F0FF00A84613D1207001F02DF8C41BB1
:1011E800D5E7182A03D9002323702B70F5E7B054EC
:1011F8000132002088F8002001F05AFA0028ECD0CB
:1012080001F0D6F998F800200028EAD1207028705B
:10121800002AE2D003463C4C86460DE0F15C5D1C9A
:101228004FF0010C5FFA8CF8414536D8E5180D44AB
:101238000B4405F801ECDBB29342EFD3581EC0B261
:10124800A3785A1ED2B2052AC7D8012AE17830D825
:101258000029C2D101F108039842BED120440431CB
:1012680010F8035C10F804AC10F8029C10F8018C1C
:101278002548C9B22D0400F03DFA05EB0A6505EBD7
:10128800092545448542A8D1A378013B052BA4D85C
:10129800DFE803F01B1F23282B2E182D0CF1010C5F
:1012A800CED804EB050816F8059008F8019C01351E
:1012B800B8E7052B02D104298FD1CBE7062BFAD04A
:1012C800032BF8D0042BF6D087E7002000F096FC1B
:1012D80083E7002000F086FC7FE76168032000F0C8
:1012E800B3F87AE761680220F9E761680120F6E758
:1012F80061680020F3E7BDE8F08700BF4A040020DA
:10130800490400204804002063040020F0B58FB091
:10131800144640BA8DF806108DF80720ADF8040081
:1013280002AA19198B4241D1211DC9B201A800F0A6
:10133800E1F90EAB2344020E03F8302C020C03F83B
:101348002F2C020A03F82E2C03F82D0C002304F18D
:1013580008018DF81C300123C9B201AD02201A46DC
:1013680007AF15F8016B5FFA80FC26BB0EAE32445E
:1013780002F81C3C624601230130861EF6B2B142D7
:10138800EFD80EA80244014400250B3402F81C3C97
:10139800E4B201F81A5C07AE013516F8010BEDB29C
:1013A80001F044F9AC42F7D80FB0F0BD13F8010BC7
:1013B80002F8010BB6E70133C655DBB2DCE70000E3
:1013C800D0B504460068FFF75FF815A3D3E90023FA
:1013D80006460F46FFF740FB10B1194B2360D0BDFE
:1013E80011A3D3E9002330463946FFF717FB08B1AC
:1013F800144BF3E70EA3D3E9002330463946FFF731
:101408002BFB0028EBD00CA3D3E900233046394648
:10141800FFF704FB0028E2D00023DFE7AFF30080EA
:10142800CDCCCCCCCCCCEC3FCDCCCCCCCCCCECBF4C
:101438009A9999999999B9BF9A9999999999B93F06
:101448006666663F666666BF012870B505460C4647
:101458000DD810492046FFF723FE38B10E49204623
:10146800FFF700FE10B10D4B43F8254070BD0C4945
:101478000A4E2046FFF714FE40B10A492046FFF7FE
:10148800F1FD18B1002346F82530EFE746F825406E
:10149800ECE700BF0000A0C20000A0428C040020BE
:1014A800000096C20000964201282DE9F743044641
:1014B8004FF0000571D800F0BFFE414E814656F846
:1014C800248000F0B9FE46F82400204600F048FACF
:1014D8003C4B3D4E014653F82400FFF71BFB4FF0F1
:1014E8003F410746FFF7DCFD58B34FF07C513846C3
:1014F800FFF7B8FD28B346F824502F4656F82400C5
:10150800FEF7C2FF26A3D3E90023FFF715F8044628
:1015180038460D46FEF7B8FF23A3D3E90023FFF7AB
:101528000BF802460B4620462946FEF74FFEFFF70A
:101538009DFA019001A8FFF743FF019803B0BDE8A9
:10154800F083A9EB0800FFF797FB3946FFF7ECFBA0
:1015580056F82410FFF7E0FA0546FEF795FF10A3AA
:10156800D3E90023FEF7E8FF11A3D3E9002380465F
:101578008946FFF771FA18B1144B46F82430BDE7D5
:101588000DA3D3E9002340464946FFF747FA10B9AF
:1015980046F82450B2E70E4BEFE72846CEE700BFE7
:1015A800FA7E6ABC7493883F9A9999999999B93F38
:1015B800CDCCCCCCCCCCEC3FCDCCCCCCCCCCECBFBB
:1015C8009C0400208C0400207C040020000096422B
:1015D800000096C2000000002DE9F743841EE3B224
:1015E800012B064661D83A4F00F030FE57F82430F8
:1015F800C51A00F02BFE47F82400304600F07AFAAE
:10160800344B014653F82600FFF784FA80462846F3
:10161800314DFFF731FB4146FFF786FB55F82410A3
:10162800FFF77AFA8146FEF72FFF21A3D3E90023BB
:10163800FEF782FF20A3D3E9002306460F46FFF7F3
:101648000BFA18B1254B45F8243009E01CA3D3E95F
:10165800002330463946FFF7E1F920BB45F82490CE
:1016680055F82400FEF710FF11A3D3E90023FEF775
:1016780063FF044640460D46FEF706FF12A3D3E972
:101688000023FEF759FF02460B4620462946FEF77F
:101698009DFDFFF7EBF9019001A8FFF791FE019876
:1016A80003B0BDE8F0830E4BCDE70020F8E700BF9C
:1016B80048AFBC9AF2D76A3ECDCCCCCCCCCCEC3F70
:1016C800CDCCCCCCCCCCECBFFCA9F1D24D62403F08
:1016D800A40400208C040020840400204054894B7A
:1016E800405489CB024A136B43F480531363704709
:1016F80000380240F0B5184EB26842F0010201F01D
:101708000304B26001F0FC0100228A4215DB8CB1AF
:10171800002308441A466FF0070606FB03F510F885
:10172800011B1835A94001330A44D9B2A142F4D3A8
:10173800094B1A60084B1868F0BD8518835C6F78F0
:101748001B0603EB0743AF78ED7803EB07232B4425
:1017580004323360D2B2D8E700300240764B774883
:101768005A6C774942F00102F0B55A640289754D06
:1017780092B222F0070242F0030202812A6842F084
:1017880000622A60828942F008028281828941F6D9
:10179800FF7642F010024DF6FF778281C763066438
:1017A800028842F0010202801A6C4FF0804442F035
:1017B80001021A64228992B222F0070242F003025F
:1017C8002281228842F0010222801A6C42F0020231
:1017D8001A640A8992B222F0070242F003020A81CF
:1017E8002A6842F000522A608A89574D42F008025E
:1017F8008A818A8942F010028A81CF630E640A883E
:10180800524E42F001020A801A6C42F008021A6431
:101818002A8992B222F0070242F003022A812A881A
:1018280042F001022A801A6B42F001021A63726ABE
:1018380022F0704242F080527262F26822F0404216
:10184800F2601A6B42F002021A63414A166826F0E7
:10185800C00646F080061660166A26F4704646F4FE
:1018680080561662966826F0C0069660166826F4BA
:10187800407646F400761660166A26F4702646F41A
:1018880000361662966826F4407696601A6B314EDA
:1018980042F004021A63326822F4404242F40042E1
:1018A8003260326A22F0704242F0005232621A6BA1
:1018B80042F010021A63284A166826F4402646F4B5
:1018C80000261660566A26F0F00646F010065662A4
:1018D800166826F4400646F400061660566A26F492
:1018E800704646F4805656621A6B42F080021A63BC
:1018F800A3F5E0531A6822F4401242F400121A6069
:101908005A6A22F4706242F400725A621A6822F427
:10191800400242F400021A605A6A22F4704242F409
:1019280000525A6247F6FF726FF0004342626362E8
:101938004A626B62F0BD00BF0038024000000140FF
:101948000004004000E100E0000C004000000240FC
:10195800000402400008024000100240000000009D
:101968000128F8B51ED13A4B586A3A4BA0F5FF400A
:101978007F381C78FFF784F9FEF786FD30A3D3E99A
:101988000023FEF7D9FD64B20646E0000F46FEF7D5
:1019980069FD02460B4630463946FEF717FCFFF74D
:1019A80065F8F8BD03280FD14FF08043586A00F15D
:1019B80000400130FFF764F9FEF766FD22A3D3E982
:1019C8000023FEF7B9FDEAE7002832D1224CA389AB
:1019D80023F008031B041B0CA381A38923F0100325
:1019E8001B041B0CA381606A1C4BA0F5FF407F38C9
:1019F8001D78FFF745F9FEF747FD11A3D3E900234A
:101A0800FEF79AFD6DB20646E8000F46FEF72AFD7E
:101A18000B46024639463046FEF7D8FBFFF726F854
:101A2800A38943F00803A381A38943F01003A3818A
:101A3800B7E7022801D10A4BB8E70020B1E700BF99
:101A4800555555555555353F3AE79C73CE39573F4F
:101A580000000140C404002000040040C504002028
:101A6800000C0040000000002DE9F047841EE3B29E
:101A7800012B064631D81C4D00F0E8FB55F8243000
:101A8800C01AB0F5FA7F28D300F0E0FB07463046CD
:101A9800FFF766FF154E56F824108246FFF73AF80E
:101AA800FEF7F2FC0EA3D3E90023FEF745FD8046BE
:101AB80055F82400381A8946FEF7C4FC0B4602463E
:101AC80049464046FEF762FEFEF7D0FF084B45F850
:101AD800247046F824A043F82400BDE8F08700BF2E
:101AE8000000000080842E41BC040020B4040020C3
:101AF800AC04002010B5841EE3B2012B05D8FFF713
:101B0800B3FF034B53F8240010BD0020FCE700BFCF
:101B1800AC040020124A138A19070DD5138A23F042
:101B280008031B041B0C138247F6FF7353620D4A0C
:101B3800137801335BB21370094A138ADB060DD59B
:101B4800138A23F010031B041B0C138247F6FF7340
:101B58005362044A1378013B5BB21370704700BFAD
:101B680000040040C5040020124A138A19070DD545
:101B7800138A23F008031B041B0C138247F6FF7318
:101B880053620D4A137801335BB21370094A138A02
:101B9800DB060DD5138A23F010031B041B0C1382DC
:101BA80047F6FF735362044A1378013B5BB2137024
:101BB800704700BF00000140C4040020084A136BAE
:101BC80043F010031363A2F52052136823F47373D0
:101BD80023F0030343F4A27343F001031360704737
:101BE80000380240044A0123118B03FA00F008432D
:101BF80080B21083704700BF00100240044A0123DE
:101C0800518B03FA00F0084380B25083704700BF3D
:101C180000100240034A0123516903FA00F04840CA
:101C2800506170470010024008B500F0A9FAFFF7AC
:101C380059FDFFF7C3FF00F0E5FBFFF75BFA00F083
:101C480017F8FFF78BFD00F0ABFA0020FFF7CAFF8B
:101C58000320FFF7C7FF0120FFF7C4FF0420FFF7A9
:101C6800C1FF052000F0D4FAFFF78AFAF9E700006F
:101C78006E490B6B43F008030B636D4B1A6822F037
:101C8800407242F000721A605A6A22F4702242F4DA
:101C980000325A621A6822F0406242F000621A600A
:101CA8005A6A22F4700242F400125A621A6822F048
:101CB800405242F000521A605A6A22F0706242F0B2
:101CC80000725A621A6822F0404242F000421A60DA
:101CD8005A6A22F0704242F000525A620B6B43F487
:101CE80080730B63534B1A6822F4406242F400621B
:101CF8001A601A6A22F4700242F440121A621A68D0
:101D080022F4405242F400521A601A6A22F07062B9
:101D180042F040721A621A6822F4404242F40042C9
:101D28001A601A6A22F0704242F040521A621A6827
:101D380022F0300242F020021A601A6A22F470621D
:101D480042F440721A620B6C43F004030B643A4B82
:101D580000224FF424601A85D862188B40F0700076
:101D680018835A63188B40F4E04018839A63988B61
:101D780040F070009883DA63988B40F4E0409883D1
:101D88001A64988A40F001009882188C40F001008B
:101D98001884188C40F010001884188C40F4807057
:101DA8001884188C40F480501884188840F001007A
:101DB80018804B6C43F002034B64204B41F2814185
:101DC8001A85D962198B41F0700119835A63198BEE
:101DD80041F4E04119839A63998B41F0700199832A
:101DE800DA63998B41F4E04199831A649A8A42F044
:101DF80001029A821A8C42F001021A841A8C42F06B
:101E080010021A841A8C42F480721A841A8C42F4D2
:101E180080521A84B3F8442042F40042A3F84420C4
:101E28001A8842F001021A80704700BF0038024049
:101E3800000C02400020024000080040000401405D
:101E48000128F8B50C463CD10846FEF71DFB6EA3E9
:101E5800D3E9002306460F46FEF7E0FD6E4DA0B11C
:101E68002B8B6E499BB223F4E04343F4A0432B83AE
:101E780004F10040FEF758FFFFF71CF980B26863D1
:101E88002B8B43F070032B83F8BD61A3D3E90023A8
:101E980030463946FEF7E0FD2B8B9BB223F07003EA
:101EA80043F050032B83002874D05C492046FEF78A
:101EB8003BFFFFF7FFF880B2A8632B8B43F4E043A6
:101EC800E1E700283CD10846FEF7DEFA4EA3D3E945
:101ED800002306460F46FEF7A1FD4F4DA0B1AB8B80
:101EE8004E499BB223F4E04343F4A043AB8304F18F
:101EF8000040FEF719FFFFF7DDF880B2E863AB8B0F
:101F080043F07003AB83BFE741A3D3E90023304616
:101F18003946FEF7A1FDAB8B9BB223F0700343F06B
:101F28005003AB83002867D03C492046FEF7FCFEEF
:101F3800FFF7C0F880B22864AB8B43F4E043E1E7D5
:101F480003282ED10846FEF79FFA2FA3D3E90023D2
:101F580006460F46FEF762FD314D50B12B8B3149D5
:101F68009BB223F4E04343F4A0432B8304F10040E5
:101F780080E727A3D3E9002330463946FEF76CFDF6
:101F88002B8B9BB223F0700343F050032B8308B1D3
:101F980024498BE72B8B9BB223F4E04343F4A04303
:101FA80071E702287FF470AF0846FEF76DFA16A3B2
:101FB800D3E9002306460F46FEF730FD184D50B111
:101FC800AB8B18499BB223F4E04343F4A043AB83A3
:101FD80004F100408DE70EA3D3E9002330463946CB
:101FE800FEF73AFDAB8B9BB223F0700343F050032E
:101FF800AB8308B10B4998E7AB8B9BB223F4E04362
:1020080043F4A0437EE700BFBC89D897B2D29CBCFA
:10201800BC89D897B2D29C3C000401400010A4456A
:102028000008004000102445002103E00E4B5B58D7
:10203800435004310D480E4B42189A42F6D30D4ACC
:1020480002E0002342F8043B0B4B9A42F9D30B48B9
:10205800016841F47001016000F01EF800F098FB7F
:10206800FFF7E2FD704700008C29000800000020FF
:102078002C0400202C040020000D002088ED00E036
:10208800FEE77047FEE7FEE7FEE7FEE770477047AA
:10209800704700F0C9B80000334B1A68002142F0BD
:1020A80001021A6099601A6822F0847222F4803260
:1020B8001A602E4A5A601A6882B022F480221A6086
:1020C800D960009101911A6842F480321A60194669
:1020D8001A6802F400320192009A01320092019AC1
:1020E8001AB9009AB2F5A06FF2D10B6813F4003355
:1020F80018BF01230193019B012B2ED11A4B1C49B8
:102108001A6C42F080521A640A6842F480420A60EB
:102118009A689A609A6842F400429A609A6842F40F
:10212800A0529A60134A5A601A6842F080721A6084
:102138001A689201FCD5104A40F2056111609A684C
:1021480022F003029A609A6842F002029A60064AF4
:10215800936803F00C03082BFAD1084B4FF0006288
:102168009A6002B0704700BF003802401030002467
:102178000070004019544007003C024000ED00E0A8
:10218800054BA7225A60054AF02182F82310002245
:102198009A6007221A60704710E000E000ED00E046
:1021A8001749184A0B6C43F0100310B50B645368B9
:1021B80043F480035360144B45F6BF5040F2BB24F0
:1021C800D8621C85988940F001009881188840F0F1
:1021D800010018800B6C43F020030B64536843F430
:1021E80000035360094B40F2AF42DA621C859A89BA
:1021F80042F001029A811A8842F001021A8010BD49
:102208000038024000E100E00010004000140040E7
:10221800044B4FF47A72196850431A68521A824272
:10222800FBD97047C8040020024A136801331360C1
:10223800704700BFC8040020034B18684FF47A7336
:10224800B0FBF3F0704700BFC8040020014B1868CA
:10225800704700BFC80400201FB5514A138ADB0726
:1022680040F19B80138A23F001031B041B0C13828B
:102278000420FFF7CFFC10220021684600F0ACFADA
:102288000320FFF737FCC0F307238DF800008DF813
:102298000130C0F30743C0F30760042207218DF81B
:1022A80002308DF803006B460120FFF72FF802205B
:1022B800FFF720FCC0F307238DF800008DF80130EC
:1022C800C0F30743C0F30760042208218DF80230E9
:1022D8008DF803006B460120FFF718F80120FFF77F
:1022E8003FFBC0F307238DF800008DF80130C0F3E1
:1022F8000743C0F30760042209218DF802308DF8E6
:1023080003006B460120FFF701F80020FFF728FBC8
:10231800C0F307238DF800008DF80130C0F30743A0
:10232800C0F3076004220A218DF802308DF80300FB
:102338006B460120FEF7EAFF0520FEF7FBFEFEF7DD
:102348000BFFC0F307238DF800008DF80130C0F3B0
:102358000743C0F3076004220D218DF802308DF881
:1023680003006B460120FEF7D1FF0F20FEF7E2FEC7
:1023780040BA6B4602220B21ADF800000120FEF79F
:10238800C5FF0420FEF7D6FE40BAADF800006B4644
:1023980002220C210120FEF7B9FF05B05DF804FB0D
:1023A80000100040164A08B5138ADB0726D5138AA1
:1023B80023F001031B041B0C13820120FFF72AFCE6
:1023C8000220FFF709F901460220FFF739FD032033
:1023D800FFF702F901460320FFF732FD0020FFF75F
:1023E80063F801460020FFF72BFD0120FFF75CF89A
:1023F800BDE8084001460120FFF722BD08BD00BF27
:10240800001400401F4920480B6B43F044030B6342
:102418001E4B1A6822F4405242F400521A600268B5
:1024280022F4402242F400220260DA6822F4405288
:1024380042F48052DA601A6A22F0706242F0006256
:102448001A62436A23F0F00343F0800343624B6C43
:1024580043F020034B640E4B9A8942F400529A8150
:1024680040F2D9221A819A8942F00C029A819A89FB
:1024780042F020029A81074A936843F080039360F0
:10248800704700BF003802400018024000080240B0
:102498000014014000E100E010B51C4CB4F804340D
:1024A8009BB2B3F5806F1A4B0AD1012284F8072436
:1024B80003209B88FFF7A2FB002384F8063410BD95
:1024C8009A88B4F802349BB2D2B2E254B4F8023417
:1024D80001339BB2A4F80234B4F8043401339BB23C
:1024E800A4F80434B4F804349BB2B3F5806F04BF85
:1024F800012384F80734B4F802349BB2B3F5806F33
:1025080004BF0023A4F80234D6E700BFCC0400209F
:10251800001401401B4BB3F8042492B2B2F5806F4B
:1025280004BF002283F80724B3F8042492B23AB314
:10253800B3F80024144992B29A5C8A80B3F8002454
:10254800013292B2A3F80024B3F80424013A92B2FB
:10255800A3F80424B3F8002492B2B2F5806F04BF44
:102568000022A3F80024B3F8042492B242B98A895D
:1025780022F080021204120C8A81012283F80624B8
:10258800704700BFD40800200014014010B5074C64
:102598002288920601D5FFF77FFF23881B0603D503
:1025A800BDE81040FFF7B6BF10BD00BF00140140E2
:1025B8001C4A938923F020031B041B0C93811A4B9C
:1025C800B3F8042492B2B2F5806F04BF002283F8F6
:1025D8000724B3F8040480B2F8B1B3F8002492B227
:1025E800985CB3F80024013292B2A3F80024B3F83F
:1025F8000424013A92B2A3F80424B3F8002492B256
:10260800B2F5806FC0B202D10022A3F80024054AB7
:10261800938943F0200393817047012283F80624AD
:10262800F5E700BF00140140CC0400201E4A93893E
:1026380023F080031B041B0C93811C4BB3F8042468
:1026480092B2B2F5806F0BD1012283F807240022E1
:1026580083F80624144A938943F0800393817047D2
:10266800B3F8022492B29854B3F80224013292B219
:10267800A3F80224B3F80424013292B2A3F8042484
:10268800B3F8042492B2B2F5806F04BF012283F834
:102698000724B3F8022492B2B2F5806F04BF002277
:1026A800A3F80224D3E700BF00140140D408002097
:1026B80078B9114A938923F020031B041B0C9381DA
:1026C8000E4BB3F80404938980B243F0200393813E
:1026D800704701280ED1084A938923F080031B0410
:1026E8001B0C9381064BB3F80404938980B243F022
:1026F8008003ECE70020704700140140CC04002060
:10270800D4080020F8B91F4A1F48938923F02003F2
:102718001B041B0C9381B0F800340B44B3F5806F95
:10272800A9BFB0F80024B0F80034C2F1010289183A
:10273800B8BFC91889B2134A405C9389C0B243F044
:1027480020039381704701281AD10E4A0F489389B4
:1027580023F080031B041B0C9381B0F80034094A52
:102768000B44B3F5806FB0F80034A8BFC3F1010380
:10277800194489B2405C9389C0B243F08003E0E712
:102788000020704700140140CC040020D408002029
:1027980070B50D4E0D4D761BB61006D000240134D1
:1027A80055F8043B9847A642F9D1094E094D761BC6
:1027B80000F0D6F8B61006D00024013455F8043BD2
:1027C8009847A642F9D170BD8029000880290008E1
:1027D8008829000880290008F0B4860746D0541ECE
:1027E800002A3CD0CAB2034602E014F1FF3436D3C3
:1027F80003F8012B9D07F8D1032C29D9CDB245EA5E
:1028080005250F2C45EA054533D9A4F110063609EC
:1028180003F1200707EB061703F1100242E90455FC
:1028280042E902551032BA42F8D1721C14F00C0F6A
:1028380003EB021204F00F0613D0331F23F0030337
:102848000433134442F8045B9342FBD106F00304BB
:102858002CB1C9B21C4403F8011B9C42FBD1F0BC4B
:10286800704734461346002CF3D1F8E71446034664
:10287800C2E71A462646E0E7024B13B1024800F0C9
:1028880005B8704700000000A12800080023014691
:102898001A46184600F01EB838B50A4C0A4D641B93
:1028A800A4100AD004F18043013B05EB8305013CE9
:1028B80055F804399847002CF9D1BDE8384000F0A4
:1028C80055B800BF8C29000888290008704700BF48
:1028D800704700BF2DE9F0411E4C05462068904620
:1028E8001F460E46FFF7F2FF1B4B1A68D2F8483115
:1028F80033B35A6820681F2A27DC4DB9911C01326E
:102908005A6043F82160FFF7E3FF0020BDE8F0813B
:1029180003EB82010124C1F8888004FA02FED3F88F
:102928008841022D44EA0E0CC3F888C1C1F8087129
:10293800E4D1D3F88C114EEA0104C3F88C41DDE7E9
:1029480002F5A673C2F84831D3E7FFF7C1FF4FF08D
:10295800FF30DBE72804002064290008000000207D
:10296800F8B500BFF8BC08BC9E467047F8B500BF74
:08297800F8BC08BC9E46704744
:0829800081280008AD010008E8
:0429880089010008B9
:10298C0000000000EC02002054030020BC030020D7
:10299C00000000000000000000000000000000002B
:1029AC00000000000000000000000000000000001B
:1029BC00000000000000000000000000000000000B
:1029CC0000000000000000000000000000000000FB
:1029DC0000000000000000000000000000000000EB
:1029EC0000000000000000000000000000000000DB
:1029FC0000000000000000000000000000000000CB
:102A0C0000000000000000000000000000000000BA
:102A1C0000000000000000000000000000000000AA
:102A2C000000000000000000010000000000000099
:102A3C000E33CDAB34126DE6ECDE05000B0000005E
:102A4C00000000000000000000000000000000007A
:102A5C00000000000000000000000000000000006A
:102A6C00000000000000000000000000000000005A
:102A7C00000000000000000000000000000000004A
:0C2DAC000000000000000000DC0C002013
:04000005080020319E
:00000001FF
